:020000040000FA
:100000000C945C000C9404020C94DD010C947900B7
:100010000C9479000C9479000C9479000C9479007C
:100020000C9479000C9479000C9479000C9479006C
:100030000C9479000C9479000C9479000C9479005C
:100040000C9493010C9479000C9479000C94790031
:100050000C9479000C9479000C9479000C9479003C
:100060000C9479000C947900000000002400270013
:100070002A0000000000250028002B0004040404CE
:100080000404040402020202020203030303030342
:10009000010204081020408001020408102001021F
:1000A00004081020000000080002010000030407FB
:1000B000000000000000000011241FBECFEFD8E0B8
:1000C000DEBFCDBF11E0A0E0B1E0E8ECF5E002C09A
:1000D00005900D92A630B107D9F721E0A6E0B1E076
:1000E00001C01D92A031B207E1F70E942B020C94CF
:1000F000E2020C940000E1EBF0E02491EDE9F0E085
:100100009491E9E8F0E0E491EE23C9F0222339F07C
:10011000233001F1A8F4213019F1223029F1F0E067
:10012000EE0FFF1FEE58FF4FA591B4912FB7F89433
:10013000EC91811126C090959E239C932FBF08952A
:100140002730A9F02830C9F0243049F720918000E9
:100150002F7D03C0209180002F7720938000DFCF78
:1001600024B52F7724BDDBCF24B52F7DFBCF209185
:10017000B0002F772093B000D2CF2091B0002F7D18
:10018000F9CF9E2BDACF80910F01811104C081E05D
:1001900080930F01089510920F010895809104013A
:1001A000811104C081E0809304010895109204013C
:1001B0000895CF93DF9390E0FC01E057FF4F249127
:1001C00084589F4FFC0184918823D1F090E0880FE0
:1001D000991FFC01E859FF4FA591B491FC01EE581D
:1001E000FF4FC591D49161110EC09FB7F8948C91C7
:1001F000E22FE0958E238C932881E223E8839FBF32
:10020000DF91CF9108958FB7F894EC91E22BEC93A6
:100210008FBFF6CF3FB7F89480910B0190910C01FE
:10022000A0910D01B0910E0126B5A89B05C02F3FEE
:1002300019F00196A11DB11D3FBFBA2FA92F982F0C
:100240008827BC01CD01620F711D811D911D42E007
:10025000660F771F881F991F4A95D1F708958F92CF
:100260009F92AF92BF92CF92DF92EF92FF926B017B
:100270007C010E940A014B015C01C114D104E1041C
:10028000F104B9F00E940A01681979098A099B09E9
:10029000683E73408105910580F321E0C21AD108C0
:1002A000E108F10888EE880E83E0981EA11CB11CBD
:1002B000E4CFFF90EF90DF90CF90BF90AF909F90F2
:1002C0008F900895089568EB7BE080E090E00C94B7
:1002D0002F0168EE73E080E090E00C942F0181E044
:1002E0000E947B006CED75E080E090E00E942F01A1
:1002F00080E00E947B0064EF71E080E090E00C946D
:100300002F0181E00E947B0064EF71E080E090E0CB
:100310000E942F0180E00E947B0064EF71E080E08A
:1003200090E00C942F011F920F920FB60F921124A0
:100330002F933F938F939F93AF93BF938091070128
:1003400090910801A0910901B0910A013091060134
:1003500023E0230F2D3758F50196A11DB11D2093E1
:1003600006018093070190930801A0930901B093BF
:100370000A0180910B0190910C01A0910D01B091A7
:100380000E010196A11DB11D80930B0190930C01EC
:10039000A0930D01B0930E01BF91AF919F918F91EA
:1003A0003F912F910F900FBE0F901F90189526E848
:1003B000230F0296A11DB11DD2CF1F920F920FB62F
:1003C0000F9211242F933F934F935F936F937F93DB
:1003D0008F939F93AF93BF93EF93FF93E0910201AD
:1003E000F09103010995FF91EF91BF91AF919F911A
:1003F0008F917F916F915F914F913F912F910F90CE
:100400000FBE0F901F9018951F920F920FB60F926C
:1004100011242F933F934F935F936F937F938F9309
:100420009F93AF93BF93EF93FF93E0910001F091FF
:1004300001010995FF91EF91BF91AF919F918F912C
:100440007F916F915F914F913F912F910F900FBED0
:100450000F901F901895789484B5826084BD84B500
:10046000816084BD85B5826085BD85B5816085BDAF
:1004700080916E00816080936E0010928100809167
:1004800081008260809381008091810081608093EF
:100490008100809180008160809380008091B10014
:1004A00084608093B1008091B00081608093B0003F
:1004B00080917A00846080937A0080917A008260D3
:1004C00080937A0080917A00816080937A00809195
:1004D0007A00806880937A001092C10061E08DE01C
:1004E0000E94D90060E082E00E94D90060E083E0D1
:1004F0000E94D900C0E0D0E080910401882391F1EE
:1005000080910F01811133C00E946F010E9481010F
:100510000E946F010E9481010E946F010E9463018D
:100520000E9481010E946F010E9481010E9481014D
:100530000E9469010E9481010E9469010E946F016D
:100540000E9481010E9481010E9463010E94810139
:100550000E946F010E9481010E946F010E9481012F
:100560000E946301209741F20E940000C5CF0E94C3
:100570006F010E9481010E946F010E9481010E940F
:100580006F010E9463010E9481010E946F010E941D
:100590006F010E946F010E9469010E9481010E9407
:1005A0006F010E946F010E9481010E9469010E94F7
:1005B00081010E946F010E9481010E9481010E94BD
:0E05C0006901C2CFF894FFCF62016201010011
:107E0000112484B714BE81FFF0D085E080938100F7
:107E100082E08093C00088E18093C10086E0809377
:107E2000C20080E18093C4008EE0C9D0259A86E02C
:107E300020E33CEF91E0309385002093840096BBD3
:107E4000B09BFECF1D9AA8958150A9F7CC24DD24C4
:107E500088248394B5E0AB2EA1E19A2EF3E0BF2EE7
:107E6000A2D0813461F49FD0082FAFD0023811F036
:107E7000013811F484E001C083E08DD089C08234E0
:107E800011F484E103C0853419F485E0A6D080C0E4
:107E9000853579F488D0E82EFF2485D0082F10E0AE
:107EA000102F00270E291F29000F111F8ED06801E7
:107EB0006FC0863521F484E090D080E0DECF843638
:107EC00009F040C070D06FD0082F6DD080E0C81688
:107ED00080E7D80618F4F601B7BEE895C0E0D1E017
:107EE00062D089930C17E1F7F0E0CF16F0E7DF06D8
:107EF00018F0F601B7BEE89568D007B600FCFDCFD4
:107F0000A601A0E0B1E02C9130E011968C91119780
:107F100090E0982F8827822B932B1296FA010C0160
:107F200087BEE89511244E5F5F4FF1E0A038BF0790
:107F300051F7F601A7BEE89507B600FCFDCF97BE46
:107F4000E89526C08437B1F42ED02DD0F82E2BD052
:107F50003CD0F601EF2C8F010F5F1F4F84911BD097
:107F6000EA94F801C1F70894C11CD11CFA94CF0C13
:107F7000D11C0EC0853739F428D08EE10CD085E9AC
:107F80000AD08FE07ACF813511F488E018D01DD067
:107F900080E101D065CF982F8091C00085FFFCCF94
:107FA0009093C60008958091C00087FFFCCF809118
:107FB000C00084FD01C0A8958091C6000895E0E648
:107FC000F0E098E1908380830895EDDF803219F02E
:107FD00088E0F5DFFFCF84E1DECF1F93182FE3DFCA
:107FE0001150E9F7F2DF1F91089580E0E8DFEE27F6
:047FF000FF270994CA
:027FFE00040479
:00000001FF
